{
  "_format": "hh-sol-artifact-1",
  "contractName": "RandomIPFS",
  "sourceName": "contracts/RandomIPFS.sol",
  "abi": [
    {
      "inputs": [
        {
          "internalType": "address",
          "name": "vrfCoordinatorV2",
          "type": "address"
        },
        {
          "internalType": "uint64",
          "name": "subscriptionId",
          "type": "uint64"
        },
        {
          "internalType": "bytes32",
          "name": "gasLane",
          "type": "bytes32"
        },
        {
          "internalType": "uint256",
          "name": "mintFee",
          "type": "uint256"
        },
        {
          "internalType": "uint32",
          "name": "callbackGasLimit",
          "type": "uint32"
        },
        {
          "internalType": "string[3]",
          "name": "dogTokenUris",
          "type": "string[3]"
        },
        {
          "internalType": "address",
          "name": "initialOwner",
          "type": "address"
        }
      ],
      "stateMutability": "nonpayable",
      "type": "constructor"
    },
    {
      "inputs": [
        {
          "internalType": "address",
          "name": "sender",
          "type": "address"
        },
        {
          "internalType": "uint256",
          "name": "tokenId",
          "type": "uint256"
        },
        {
          "internalType": "address",
          "name": "owner",
          "type": "address"
        }
      ],
      "name": "ERC721IncorrectOwner",
      "type": "error"
    },
    {
      "inputs": [
        {
          "internalType": "address",
          "name": "operator",
          "type": "address"
        },
        {
          "internalType": "uint256",
          "name": "tokenId",
          "type": "uint256"
        }
      ],
      "name": "ERC721InsufficientApproval",
      "type": "error"
    },
    {
      "inputs": [
        {
          "internalType": "address",
          "name": "approver",
          "type": "address"
        }
      ],
      "name": "ERC721InvalidApprover",
      "type": "error"
    },
    {
      "inputs": [
        {
          "internalType": "address",
          "name": "operator",
          "type": "address"
        }
      ],
      "name": "ERC721InvalidOperator",
      "type": "error"
    },
    {
      "inputs": [
        {
          "internalType": "address",
          "name": "owner",
          "type": "address"
        }
      ],
      "name": "ERC721InvalidOwner",
      "type": "error"
    },
    {
      "inputs": [
        {
          "internalType": "address",
          "name": "receiver",
          "type": "address"
        }
      ],
      "name": "ERC721InvalidReceiver",
      "type": "error"
    },
    {
      "inputs": [
        {
          "internalType": "address",
          "name": "sender",
          "type": "address"
        }
      ],
      "name": "ERC721InvalidSender",
      "type": "error"
    },
    {
      "inputs": [
        {
          "internalType": "uint256",
          "name": "tokenId",
          "type": "uint256"
        }
      ],
      "name": "ERC721NonexistentToken",
      "type": "error"
    },
    {
      "inputs": [
        {
          "internalType": "address",
          "name": "have",
          "type": "address"
        },
        {
          "internalType": "address",
          "name": "want",
          "type": "address"
        }
      ],
      "name": "OnlyCoordinatorCanFulfill",
      "type": "error"
    },
    {
      "inputs": [
        {
          "internalType": "address",
          "name": "owner",
          "type": "address"
        }
      ],
      "name": "OwnableInvalidOwner",
      "type": "error"
    },
    {
      "inputs": [
        {
          "internalType": "address",
          "name": "account",
          "type": "address"
        }
      ],
      "name": "OwnableUnauthorizedAccount",
      "type": "error"
    },
    {
      "inputs": [],
      "name": "RandomIpfsNft__NeedMoreETHSent",
      "type": "error"
    },
    {
      "inputs": [],
      "name": "RandomIpfsNft__RangeOutOfBounds",
      "type": "error"
    },
    {
      "inputs": [],
      "name": "RandomIpfsNft__TransferFailed",
      "type": "error"
    },
    {
      "anonymous": false,
      "inputs": [
        {
          "indexed": true,
          "internalType": "address",
          "name": "owner",
          "type": "address"
        },
        {
          "indexed": true,
          "internalType": "address",
          "name": "approved",
          "type": "address"
        },
        {
          "indexed": true,
          "internalType": "uint256",
          "name": "tokenId",
          "type": "uint256"
        }
      ],
      "name": "Approval",
      "type": "event"
    },
    {
      "anonymous": false,
      "inputs": [
        {
          "indexed": true,
          "internalType": "address",
          "name": "owner",
          "type": "address"
        },
        {
          "indexed": true,
          "internalType": "address",
          "name": "operator",
          "type": "address"
        },
        {
          "indexed": false,
          "internalType": "bool",
          "name": "approved",
          "type": "bool"
        }
      ],
      "name": "ApprovalForAll",
      "type": "event"
    },
    {
      "anonymous": false,
      "inputs": [
        {
          "indexed": false,
          "internalType": "uint256",
          "name": "_fromTokenId",
          "type": "uint256"
        },
        {
          "indexed": false,
          "internalType": "uint256",
          "name": "_toTokenId",
          "type": "uint256"
        }
      ],
      "name": "BatchMetadataUpdate",
      "type": "event"
    },
    {
      "anonymous": false,
      "inputs": [
        {
          "indexed": false,
          "internalType": "uint256",
          "name": "_tokenId",
          "type": "uint256"
        }
      ],
      "name": "MetadataUpdate",
      "type": "event"
    },
    {
      "anonymous": false,
      "inputs": [
        {
          "indexed": false,
          "internalType": "enum RandomIPFS.Breed",
          "name": "breed",
          "type": "uint8"
        },
        {
          "indexed": false,
          "internalType": "address",
          "name": "minter",
          "type": "address"
        }
      ],
      "name": "NftMinted",
      "type": "event"
    },
    {
      "anonymous": false,
      "inputs": [
        {
          "indexed": true,
          "internalType": "uint256",
          "name": "requestId",
          "type": "uint256"
        },
        {
          "indexed": false,
          "internalType": "address",
          "name": "requester",
          "type": "address"
        }
      ],
      "name": "NftRequested",
      "type": "event"
    },
    {
      "anonymous": false,
      "inputs": [
        {
          "indexed": true,
          "internalType": "address",
          "name": "previousOwner",
          "type": "address"
        },
        {
          "indexed": true,
          "internalType": "address",
          "name": "newOwner",
          "type": "address"
        }
      ],
      "name": "OwnershipTransferred",
      "type": "event"
    },
    {
      "anonymous": false,
      "inputs": [
        {
          "indexed": true,
          "internalType": "address",
          "name": "from",
          "type": "address"
        },
        {
          "indexed": true,
          "internalType": "address",
          "name": "to",
          "type": "address"
        },
        {
          "indexed": true,
          "internalType": "uint256",
          "name": "tokenId",
          "type": "uint256"
        }
      ],
      "name": "Transfer",
      "type": "event"
    },
    {
      "inputs": [
        {
          "internalType": "address",
          "name": "to",
          "type": "address"
        },
        {
          "internalType": "uint256",
          "name": "tokenId",
          "type": "uint256"
        }
      ],
      "name": "approve",
      "outputs": [],
      "stateMutability": "nonpayable",
      "type": "function"
    },
    {
      "inputs": [
        {
          "internalType": "address",
          "name": "owner",
          "type": "address"
        }
      ],
      "name": "balanceOf",
      "outputs": [
        {
          "internalType": "uint256",
          "name": "",
          "type": "uint256"
        }
      ],
      "stateMutability": "view",
      "type": "function"
    },
    {
      "inputs": [
        {
          "internalType": "uint256",
          "name": "tokenId",
          "type": "uint256"
        }
      ],
      "name": "getApproved",
      "outputs": [
        {
          "internalType": "address",
          "name": "",
          "type": "address"
        }
      ],
      "stateMutability": "view",
      "type": "function"
    },
    {
      "inputs": [
        {
          "internalType": "uint256",
          "name": "moddedRng",
          "type": "uint256"
        }
      ],
      "name": "getBreedFromModdedRng",
      "outputs": [
        {
          "internalType": "enum RandomIPFS.Breed",
          "name": "",
          "type": "uint8"
        }
      ],
      "stateMutability": "pure",
      "type": "function"
    },
    {
      "inputs": [],
      "name": "getChanceArray",
      "outputs": [
        {
          "internalType": "uint256[3]",
          "name": "",
          "type": "uint256[3]"
        }
      ],
      "stateMutability": "pure",
      "type": "function"
    },
    {
      "inputs": [
        {
          "internalType": "uint256",
          "name": "index",
          "type": "uint256"
        }
      ],
      "name": "getDogTokenUris",
      "outputs": [
        {
          "internalType": "string",
          "name": "",
          "type": "string"
        }
      ],
      "stateMutability": "view",
      "type": "function"
    },
    {
      "inputs": [],
      "name": "getInitialized",
      "outputs": [
        {
          "internalType": "bool",
          "name": "",
          "type": "bool"
        }
      ],
      "stateMutability": "view",
      "type": "function"
    },
    {
      "inputs": [],
      "name": "getMintFee",
      "outputs": [
        {
          "internalType": "uint256",
          "name": "",
          "type": "uint256"
        }
      ],
      "stateMutability": "view",
      "type": "function"
    },
    {
      "inputs": [],
      "name": "getTokenCounter",
      "outputs": [
        {
          "internalType": "uint256",
          "name": "",
          "type": "uint256"
        }
      ],
      "stateMutability": "view",
      "type": "function"
    },
    {
      "inputs": [
        {
          "internalType": "address",
          "name": "owner",
          "type": "address"
        },
        {
          "internalType": "address",
          "name": "operator",
          "type": "address"
        }
      ],
      "name": "isApprovedForAll",
      "outputs": [
        {
          "internalType": "bool",
          "name": "",
          "type": "bool"
        }
      ],
      "stateMutability": "view",
      "type": "function"
    },
    {
      "inputs": [],
      "name": "name",
      "outputs": [
        {
          "internalType": "string",
          "name": "",
          "type": "string"
        }
      ],
      "stateMutability": "view",
      "type": "function"
    },
    {
      "inputs": [],
      "name": "owner",
      "outputs": [
        {
          "internalType": "address",
          "name": "",
          "type": "address"
        }
      ],
      "stateMutability": "view",
      "type": "function"
    },
    {
      "inputs": [
        {
          "internalType": "uint256",
          "name": "tokenId",
          "type": "uint256"
        }
      ],
      "name": "ownerOf",
      "outputs": [
        {
          "internalType": "address",
          "name": "",
          "type": "address"
        }
      ],
      "stateMutability": "view",
      "type": "function"
    },
    {
      "inputs": [
        {
          "internalType": "uint256",
          "name": "requestId",
          "type": "uint256"
        },
        {
          "internalType": "uint256[]",
          "name": "randomWords",
          "type": "uint256[]"
        }
      ],
      "name": "rawFulfillRandomWords",
      "outputs": [],
      "stateMutability": "nonpayable",
      "type": "function"
    },
    {
      "inputs": [],
      "name": "renounceOwnership",
      "outputs": [],
      "stateMutability": "nonpayable",
      "type": "function"
    },
    {
      "inputs": [],
      "name": "requestNft",
      "outputs": [
        {
          "internalType": "uint256",
          "name": "requestId",
          "type": "uint256"
        }
      ],
      "stateMutability": "payable",
      "type": "function"
    },
    {
      "inputs": [
        {
          "internalType": "uint256",
          "name": "",
          "type": "uint256"
        }
      ],
      "name": "s_requestIdToSender",
      "outputs": [
        {
          "internalType": "address",
          "name": "",
          "type": "address"
        }
      ],
      "stateMutability": "view",
      "type": "function"
    },
    {
      "inputs": [
        {
          "internalType": "address",
          "name": "from",
          "type": "address"
        },
        {
          "internalType": "address",
          "name": "to",
          "type": "address"
        },
        {
          "internalType": "uint256",
          "name": "tokenId",
          "type": "uint256"
        }
      ],
      "name": "safeTransferFrom",
      "outputs": [],
      "stateMutability": "nonpayable",
      "type": "function"
    },
    {
      "inputs": [
        {
          "internalType": "address",
          "name": "from",
          "type": "address"
        },
        {
          "internalType": "address",
          "name": "to",
          "type": "address"
        },
        {
          "internalType": "uint256",
          "name": "tokenId",
          "type": "uint256"
        },
        {
          "internalType": "bytes",
          "name": "data",
          "type": "bytes"
        }
      ],
      "name": "safeTransferFrom",
      "outputs": [],
      "stateMutability": "nonpayable",
      "type": "function"
    },
    {
      "inputs": [
        {
          "internalType": "address",
          "name": "operator",
          "type": "address"
        },
        {
          "internalType": "bool",
          "name": "approved",
          "type": "bool"
        }
      ],
      "name": "setApprovalForAll",
      "outputs": [],
      "stateMutability": "nonpayable",
      "type": "function"
    },
    {
      "inputs": [
        {
          "internalType": "bytes4",
          "name": "interfaceId",
          "type": "bytes4"
        }
      ],
      "name": "supportsInterface",
      "outputs": [
        {
          "internalType": "bool",
          "name": "",
          "type": "bool"
        }
      ],
      "stateMutability": "view",
      "type": "function"
    },
    {
      "inputs": [],
      "name": "symbol",
      "outputs": [
        {
          "internalType": "string",
          "name": "",
          "type": "string"
        }
      ],
      "stateMutability": "view",
      "type": "function"
    },
    {
      "inputs": [
        {
          "internalType": "uint256",
          "name": "",
          "type": "uint256"
        }
      ],
      "name": "tokenURI",
      "outputs": [
        {
          "internalType": "string",
          "name": "",
          "type": "string"
        }
      ],
      "stateMutability": "view",
      "type": "function"
    },
    {
      "inputs": [
        {
          "internalType": "address",
          "name": "from",
          "type": "address"
        },
        {
          "internalType": "address",
          "name": "to",
          "type": "address"
        },
        {
          "internalType": "uint256",
          "name": "tokenId",
          "type": "uint256"
        }
      ],
      "name": "transferFrom",
      "outputs": [],
      "stateMutability": "nonpayable",
      "type": "function"
    },
    {
      "inputs": [
        {
          "internalType": "address",
          "name": "newOwner",
          "type": "address"
        }
      ],
      "name": "transferOwnership",
      "outputs": [],
      "stateMutability": "nonpayable",
      "type": "function"
    },
    {
      "inputs": [],
      "name": "withdraw",
      "outputs": [],
      "stateMutability": "nonpayable",
      "type": "function"
    }
  ],
  "bytecode": "0x6101406040523480156200001257600080fd5b5060405162003be538038062003be58339818101604052810190620000389190620007b0565b80876040518060400160405280600f81526020017f52616e646f6d2049706673204e465400000000000000000000000000000000008152506040518060400160405280600381526020017f52494e00000000000000000000000000000000000000000000000000000000008152508160009081620000b7919062000ac3565b508060019081620000c9919062000ac3565b5050508073ffffffffffffffffffffffffffffffffffffffff1660808173ffffffffffffffffffffffffffffffffffffffff168152505050600073ffffffffffffffffffffffffffffffffffffffff168173ffffffffffffffffffffffffffffffffffffffff1603620001765760006040517f1e4fbdf70000000000000000000000000000000000000000000000000000000081526004016200016d919062000bbb565b60405180910390fd5b62000187816200021f60201b60201c565b508673ffffffffffffffffffffffffffffffffffffffff1660a08173ffffffffffffffffffffffffffffffffffffffff16815250508460e081815250508567ffffffffffffffff1660c08167ffffffffffffffff16815250508263ffffffff166101008163ffffffff168152505081600990600362000208929190620002e5565b508361012081815250505050505050505062000bd8565b6000600760009054906101000a900473ffffffffffffffffffffffffffffffffffffffff16905081600760006101000a81548173ffffffffffffffffffffffffffffffffffffffff021916908373ffffffffffffffffffffffffffffffffffffffff1602179055508173ffffffffffffffffffffffffffffffffffffffff168173ffffffffffffffffffffffffffffffffffffffff167f8be0079c531659141344cd1fd0a4f28419497f9722a3daafe3b4186f6b6457e060405160405180910390a35050565b82805482825590600052602060002090810192821562000332579160200282015b828111156200033157825182908162000320919062000ac3565b509160200191906001019062000306565b5b50905062000341919062000345565b5090565b5b808211156200036957600081816200035f91906200036d565b5060010162000346565b5090565b5080546200037b90620008bc565b6000825580601f106200038f5750620003b0565b601f016020900490600052602060002090810190620003af9190620003b3565b5b50565b5b80821115620003ce576000816000905550600101620003b4565b5090565b6000604051905090565b600080fd5b600080fd5b600073ffffffffffffffffffffffffffffffffffffffff82169050919050565b60006200041382620003e6565b9050919050565b620004258162000406565b81146200043157600080fd5b50565b60008151905062000445816200041a565b92915050565b600067ffffffffffffffff82169050919050565b6200046a816200044b565b81146200047657600080fd5b50565b6000815190506200048a816200045f565b92915050565b6000819050919050565b620004a58162000490565b8114620004b157600080fd5b50565b600081519050620004c5816200049a565b92915050565b6000819050919050565b620004e081620004cb565b8114620004ec57600080fd5b50565b6000815190506200050081620004d5565b92915050565b600063ffffffff82169050919050565b620005218162000506565b81146200052d57600080fd5b50565b600081519050620005418162000516565b92915050565b600080fd5b6000601f19601f8301169050919050565b7f4e487b7100000000000000000000000000000000000000000000000000000000600052604160045260246000fd5b62000597826200054c565b810181811067ffffffffffffffff82111715620005b957620005b86200055d565b5b80604052505050565b6000620005ce620003d2565b9050620005dc82826200058c565b919050565b600067ffffffffffffffff821115620005ff57620005fe6200055d565b5b602082029050919050565b600080fd5b600080fd5b600067ffffffffffffffff8211156200063257620006316200055d565b5b6200063d826200054c565b9050602081019050919050565b60005b838110156200066a5780820151818401526020810190506200064d565b60008484015250505050565b60006200068d620006878462000614565b620005c2565b905082815260208101848484011115620006ac57620006ab6200060f565b5b620006b98482856200064a565b509392505050565b600082601f830112620006d957620006d862000547565b5b8151620006eb84826020860162000676565b91505092915050565b60006200070b6200070584620005e1565b620005c2565b905080602084028301858111156200072857620007276200060a565b5b835b818110156200077657805167ffffffffffffffff81111562000751576200075062000547565b5b808601620007608982620006c1565b855260208501945050506020810190506200072a565b5050509392505050565b600082601f83011262000798576200079762000547565b5b6003620007a7848285620006f4565b91505092915050565b600080600080600080600060e0888a031215620007d257620007d1620003dc565b5b6000620007e28a828b0162000434565b9750506020620007f58a828b0162000479565b9650506040620008088a828b01620004b4565b95505060606200081b8a828b01620004ef565b94505060806200082e8a828b0162000530565b93505060a088015167ffffffffffffffff811115620008525762000851620003e1565b5b620008608a828b0162000780565b92505060c0620008738a828b0162000434565b91505092959891949750929550565b600081519050919050565b7f4e487b7100000000000000000000000000000000000000000000000000000000600052602260045260246000fd5b60006002820490506001821680620008d557607f821691505b602082108103620008eb57620008ea6200088d565b5b50919050565b60008190508160005260206000209050919050565b60006020601f8301049050919050565b600082821b905092915050565b600060088302620009557fffffffffffffffffffffffffffffffffffffffffffffffffffffffffffffffff8262000916565b62000961868362000916565b95508019841693508086168417925050509392505050565b6000819050919050565b6000620009a46200099e6200099884620004cb565b62000979565b620004cb565b9050919050565b6000819050919050565b620009c08362000983565b620009d8620009cf82620009ab565b84845462000923565b825550505050565b600090565b620009ef620009e0565b620009fc818484620009b5565b505050565b5b8181101562000a245762000a18600082620009e5565b60018101905062000a02565b5050565b601f82111562000a735762000a3d81620008f1565b62000a488462000906565b8101602085101562000a58578190505b62000a7062000a678562000906565b83018262000a01565b50505b505050565b600082821c905092915050565b600062000a986000198460080262000a78565b1980831691505092915050565b600062000ab3838362000a85565b9150826002028217905092915050565b62000ace8262000882565b67ffffffffffffffff81111562000aea5762000ae96200055d565b5b62000af68254620008bc565b62000b0382828562000a28565b600060209050601f83116001811462000b3b576000841562000b26578287015190505b62000b32858262000aa5565b86555062000ba2565b601f19841662000b4b86620008f1565b60005b8281101562000b755784890151825560018201915060208501945060208101905062000b4e565b8683101562000b95578489015162000b91601f89168262000a85565b8355505b6001600288020188555050505b505050505050565b62000bb58162000406565b82525050565b600060208201905062000bd2600083018462000baa565b92915050565b60805160a05160c05160e0516101005161012051612faf62000c3660003960008181610bc70152610dc001526000610e9a01526000610e5601526000610e7701526000610e1a01526000818161076a01526107be0152612faf6000f3fe6080604052600436106101815760003560e01c8063715018a6116100d1578063a51cccf31161008a578063c87b56dd11610064578063c87b56dd14610575578063e985e9c5146105b2578063ee89dab4146105ef578063f2fde38b1461061a57610181565b8063a51cccf3146104f1578063aa1524911461052e578063b88d4fde1461054c57610181565b8063715018a6146103f35780637a5caab31461040a5780638da5cb5b1461043557806395d89b4114610460578063a22cb4651461048b578063a36f573b146104b457610181565b80633af259751161013e5780635dacf5f4116101185780635dacf5f4146103235780636352211e1461034e5780636e02007d1461038b57806370a08231146103b657610181565b80633af25975146102a65780633ccfd60b146102e357806342842e0e146102fa57610181565b806301ffc9a71461018657806306fdde03146101c3578063081812fc146101ee578063095ea7b31461022b5780631fe543e31461025457806323b872dd1461027d575b600080fd5b34801561019257600080fd5b506101ad60048036038101906101a891906120e3565b610643565b6040516101ba919061212b565b60405180910390f35b3480156101cf57600080fd5b506101d86106a4565b6040516101e591906121d6565b60405180910390f35b3480156101fa57600080fd5b506102156004803603810190610210919061222e565b610736565b604051610222919061229c565b60405180910390f35b34801561023757600080fd5b50610252600480360381019061024d91906122e3565b610752565b005b34801561026057600080fd5b5061027b6004803603810190610276919061246b565b610768565b005b34801561028957600080fd5b506102a4600480360381019061029f91906124c7565b610828565b005b3480156102b257600080fd5b506102cd60048036038101906102c8919061222e565b61092a565b6040516102da91906121d6565b60405180910390f35b3480156102ef57600080fd5b506102f86109da565b005b34801561030657600080fd5b50610321600480360381019061031c91906124c7565b610a8e565b005b34801561032f57600080fd5b50610338610aae565b60405161034591906125c5565b60405180910390f35b34801561035a57600080fd5b506103756004803603810190610370919061222e565b610ad9565b604051610382919061229c565b60405180910390f35b34801561039757600080fd5b506103a0610aeb565b6040516103ad91906125ef565b60405180910390f35b3480156103c257600080fd5b506103dd60048036038101906103d8919061260a565b610af5565b6040516103ea91906125ef565b60405180910390f35b3480156103ff57600080fd5b50610408610baf565b005b34801561041657600080fd5b5061041f610bc3565b60405161042c91906125ef565b60405180910390f35b34801561044157600080fd5b5061044a610beb565b604051610457919061229c565b60405180910390f35b34801561046c57600080fd5b50610475610c15565b60405161048291906121d6565b60405180910390f35b34801561049757600080fd5b506104b260048036038101906104ad9190612663565b610ca7565b005b3480156104c057600080fd5b506104db60048036038101906104d6919061222e565b610cbd565b6040516104e8919061229c565b60405180910390f35b3480156104fd57600080fd5b506105186004803603810190610513919061222e565b610cf0565b604051610525919061271a565b60405180910390f35b610536610dbc565b60405161054391906125ef565b60405180910390f35b34801561055857600080fd5b50610573600480360381019061056e91906127ea565b610fad565b005b34801561058157600080fd5b5061059c6004803603810190610597919061222e565b610fca565b6040516105a991906121d6565b60405180910390f35b3480156105be57600080fd5b506105d960048036038101906105d4919061286d565b610fd1565b6040516105e6919061212b565b60405180910390f35b3480156105fb57600080fd5b50610604611065565b604051610611919061212b565b60405180910390f35b34801561062657600080fd5b50610641600480360381019061063c919061260a565b61107c565b005b6000634906490660e01b7bffffffffffffffffffffffffffffffffffffffffffffffffffffffff1916827bffffffffffffffffffffffffffffffffffffffffffffffffffffffff1916148061069d575061069c82611102565b5b9050919050565b6060600080546106b3906128dc565b80601f01602080910402602001604051908101604052809291908181526020018280546106df906128dc565b801561072c5780601f106107015761010080835404028352916020019161072c565b820191906000526020600020905b81548152906001019060200180831161070f57829003601f168201915b5050505050905090565b6000610741826111e4565b5061074b8261126c565b9050919050565b610764828261075f6112a9565b6112b1565b5050565b7f000000000000000000000000000000000000000000000000000000000000000073ffffffffffffffffffffffffffffffffffffffff163373ffffffffffffffffffffffffffffffffffffffff161461081a57337f00000000000000000000000000000000000000000000000000000000000000006040517f1cf993f400000000000000000000000000000000000000000000000000000000815260040161081192919061290d565b60405180910390fd5b61082482826112c3565b5050565b600073ffffffffffffffffffffffffffffffffffffffff168273ffffffffffffffffffffffffffffffffffffffff160361089a5760006040517f64a0ae92000000000000000000000000000000000000000000000000000000008152600401610891919061229c565b60405180910390fd5b60006108ae83836108a96112a9565b611448565b90508373ffffffffffffffffffffffffffffffffffffffff168173ffffffffffffffffffffffffffffffffffffffff1614610924578382826040517f64283d7b00000000000000000000000000000000000000000000000000000000815260040161091b93929190612936565b60405180910390fd5b50505050565b6060600982815481106109405761093f61296d565b5b906000526020600020018054610955906128dc565b80601f0160208091040260200160405190810160405280929190818152602001828054610981906128dc565b80156109ce5780601f106109a3576101008083540402835291602001916109ce565b820191906000526020600020905b8154815290600101906020018083116109b157829003601f168201915b50505050509050919050565b6109e2611662565b600047905060003373ffffffffffffffffffffffffffffffffffffffff1682604051610a0d906129cd565b60006040518083038185875af1925050503d8060008114610a4a576040519150601f19603f3d011682016040523d82523d6000602084013e610a4f565b606091505b5050905080610a8a576040517fca7e25b700000000000000000000000000000000000000000000000000000000815260040160405180910390fd5b5050565b610aa983838360405180602001604052806000815250610fad565b505050565b610ab6612055565b6040518060600160405280600a8152602001602881526020016064815250905090565b6000610ae4826111e4565b9050919050565b6000600854905090565b60008073ffffffffffffffffffffffffffffffffffffffff168273ffffffffffffffffffffffffffffffffffffffff1603610b685760006040517f89c62b64000000000000000000000000000000000000000000000000000000008152600401610b5f919061229c565b60405180910390fd5b600360008373ffffffffffffffffffffffffffffffffffffffff1673ffffffffffffffffffffffffffffffffffffffff168152602001908152602001600020549050919050565b610bb7611662565b610bc160006116e9565b565b60007f0000000000000000000000000000000000000000000000000000000000000000905090565b6000600760009054906101000a900473ffffffffffffffffffffffffffffffffffffffff16905090565b606060018054610c24906128dc565b80601f0160208091040260200160405190810160405280929190818152602001828054610c50906128dc565b8015610c9d5780601f10610c7257610100808354040283529160200191610c9d565b820191906000526020600020905b815481529060010190602001808311610c8057829003601f168201915b5050505050905090565b610cb9610cb26112a9565b83836117af565b5050565b600b6020528060005260406000206000915054906101000a900473ffffffffffffffffffffffffffffffffffffffff1681565b600080600090506000610d01610aae565b905060005b6003811015610d8457828510158015610d355750818160038110610d2d57610d2c61296d565b5b602002015185105b15610d5757806002811115610d4d57610d4c6126a3565b5b9350505050610db7565b818160038110610d6a57610d6961296d565b5b602002015192508080610d7c90612a11565b915050610d06565b506040517f12806c9d00000000000000000000000000000000000000000000000000000000815260040160405180910390fd5b919050565b60007f0000000000000000000000000000000000000000000000000000000000000000341015610e18576040517fb90f491000000000000000000000000000000000000000000000000000000000815260040160405180910390fd5b7f000000000000000000000000000000000000000000000000000000000000000073ffffffffffffffffffffffffffffffffffffffff16635d3b1d307f00000000000000000000000000000000000000000000000000000000000000007f000000000000000000000000000000000000000000000000000000000000000060037f000000000000000000000000000000000000000000000000000000000000000060016040518663ffffffff1660e01b8152600401610edb959493929190612ad1565b6020604051808303816000875af1158015610efa573d6000803e3d6000fd5b505050506040513d601f19601f82011682018060405250810190610f1e9190612b39565b905033600b600083815260200190815260200160002060006101000a81548173ffffffffffffffffffffffffffffffffffffffff021916908373ffffffffffffffffffffffffffffffffffffffff160217905550807ff873236e6cc0ecc5be1a9a35c95ee5b8d1ac4cc7bfef0cc5060391d6cc98e26b33604051610fa2919061229c565b60405180910390a290565b610fb8848484610828565b610fc48484848461191e565b50505050565b6060919050565b6000600560008473ffffffffffffffffffffffffffffffffffffffff1673ffffffffffffffffffffffffffffffffffffffff16815260200190815260200160002060008373ffffffffffffffffffffffffffffffffffffffff1673ffffffffffffffffffffffffffffffffffffffff16815260200190815260200160002060009054906101000a900460ff16905092915050565b6000600a60009054906101000a900460ff16905090565b611084611662565b600073ffffffffffffffffffffffffffffffffffffffff168173ffffffffffffffffffffffffffffffffffffffff16036110f65760006040517f1e4fbdf70000000000000000000000000000000000000000000000000000000081526004016110ed919061229c565b60405180910390fd5b6110ff816116e9565b50565b60007f80ac58cd000000000000000000000000000000000000000000000000000000007bffffffffffffffffffffffffffffffffffffffffffffffffffffffff1916827bffffffffffffffffffffffffffffffffffffffffffffffffffffffff191614806111cd57507f5b5e139f000000000000000000000000000000000000000000000000000000007bffffffffffffffffffffffffffffffffffffffffffffffffffffffff1916827bffffffffffffffffffffffffffffffffffffffffffffffffffffffff1916145b806111dd57506111dc82611ad5565b5b9050919050565b6000806111f083611b3f565b9050600073ffffffffffffffffffffffffffffffffffffffff168173ffffffffffffffffffffffffffffffffffffffff160361126357826040517f7e27328900000000000000000000000000000000000000000000000000000000815260040161125a91906125ef565b60405180910390fd5b80915050919050565b60006004600083815260200190815260200160002060009054906101000a900473ffffffffffffffffffffffffffffffffffffffff169050919050565b600033905090565b6112be8383836001611b7c565b505050565b6000600b600084815260200190815260200160002060009054906101000a900473ffffffffffffffffffffffffffffffffffffffff16905060006008549050600060648460008151811061131a5761131961296d565b5b602002602001015161132c9190612b95565b9050600061133982610cf0565b90506113458484611d41565b61140783600983600281111561135e5761135d6126a3565b5b8154811061136f5761136e61296d565b5b906000526020600020018054611384906128dc565b80601f01602080910402602001604051908101604052809291908181526020018280546113b0906128dc565b80156113fd5780601f106113d2576101008083540402835291602001916113fd565b820191906000526020600020905b8154815290600101906020018083116113e057829003601f168201915b5050505050611d5f565b7f8a269f26b688e110e9cbd887d163dab35cae678fa353a0292de532c0cac1ecdc8185604051611438929190612bc6565b60405180910390a1505050505050565b60008061145484611b3f565b9050600073ffffffffffffffffffffffffffffffffffffffff168373ffffffffffffffffffffffffffffffffffffffff161461149657611495818486611dbb565b5b600073ffffffffffffffffffffffffffffffffffffffff168173ffffffffffffffffffffffffffffffffffffffff1614611527576114d8600085600080611b7c565b6001600360008373ffffffffffffffffffffffffffffffffffffffff1673ffffffffffffffffffffffffffffffffffffffff168152602001908152602001600020600082825403925050819055505b600073ffffffffffffffffffffffffffffffffffffffff168573ffffffffffffffffffffffffffffffffffffffff16146115aa576001600360008773ffffffffffffffffffffffffffffffffffffffff1673ffffffffffffffffffffffffffffffffffffffff168152602001908152602001600020600082825401925050819055505b846002600086815260200190815260200160002060006101000a81548173ffffffffffffffffffffffffffffffffffffffff021916908373ffffffffffffffffffffffffffffffffffffffff160217905550838573ffffffffffffffffffffffffffffffffffffffff168273ffffffffffffffffffffffffffffffffffffffff167fddf252ad1be2c89b69c2b068fc378daa952ba7f163c4a11628f55a4df523b3ef60405160405180910390a4809150509392505050565b61166a6112a9565b73ffffffffffffffffffffffffffffffffffffffff16611688610beb565b73ffffffffffffffffffffffffffffffffffffffff16146116e7576116ab6112a9565b6040517f118cdaa70000000000000000000000000000000000000000000000000000000081526004016116de919061229c565b60405180910390fd5b565b6000600760009054906101000a900473ffffffffffffffffffffffffffffffffffffffff16905081600760006101000a81548173ffffffffffffffffffffffffffffffffffffffff021916908373ffffffffffffffffffffffffffffffffffffffff1602179055508173ffffffffffffffffffffffffffffffffffffffff168173ffffffffffffffffffffffffffffffffffffffff167f8be0079c531659141344cd1fd0a4f28419497f9722a3daafe3b4186f6b6457e060405160405180910390a35050565b600073ffffffffffffffffffffffffffffffffffffffff168273ffffffffffffffffffffffffffffffffffffffff160361182057816040517f5b08ba18000000000000000000000000000000000000000000000000000000008152600401611817919061229c565b60405180910390fd5b80600560008573ffffffffffffffffffffffffffffffffffffffff1673ffffffffffffffffffffffffffffffffffffffff16815260200190815260200160002060008473ffffffffffffffffffffffffffffffffffffffff1673ffffffffffffffffffffffffffffffffffffffff16815260200190815260200160002060006101000a81548160ff0219169083151502179055508173ffffffffffffffffffffffffffffffffffffffff168373ffffffffffffffffffffffffffffffffffffffff167f17307eab39ab6107e8899845ad3d59bd9653f200f220920489ca2b5937696c3183604051611911919061212b565b60405180910390a3505050565b60008373ffffffffffffffffffffffffffffffffffffffff163b1115611acf578273ffffffffffffffffffffffffffffffffffffffff1663150b7a026119626112a9565b8685856040518563ffffffff1660e01b81526004016119849493929190612c44565b6020604051808303816000875af19250505080156119c057506040513d601f19601f820116820180604052508101906119bd9190612ca5565b60015b611a44573d80600081146119f0576040519150601f19603f3d011682016040523d82523d6000602084013e6119f5565b606091505b506000815103611a3c57836040517f64a0ae92000000000000000000000000000000000000000000000000000000008152600401611a33919061229c565b60405180910390fd5b805181602001fd5b63150b7a0260e01b7bffffffffffffffffffffffffffffffffffffffffffffffffffffffff1916817bffffffffffffffffffffffffffffffffffffffffffffffffffffffff191614611acd57836040517f64a0ae92000000000000000000000000000000000000000000000000000000008152600401611ac4919061229c565b60405180910390fd5b505b50505050565b60007f01ffc9a7000000000000000000000000000000000000000000000000000000007bffffffffffffffffffffffffffffffffffffffffffffffffffffffff1916827bffffffffffffffffffffffffffffffffffffffffffffffffffffffff1916149050919050565b60006002600083815260200190815260200160002060009054906101000a900473ffffffffffffffffffffffffffffffffffffffff169050919050565b8080611bb55750600073ffffffffffffffffffffffffffffffffffffffff168273ffffffffffffffffffffffffffffffffffffffff1614155b15611ce9576000611bc5846111e4565b9050600073ffffffffffffffffffffffffffffffffffffffff168373ffffffffffffffffffffffffffffffffffffffff1614158015611c3057508273ffffffffffffffffffffffffffffffffffffffff168173ffffffffffffffffffffffffffffffffffffffff1614155b8015611c435750611c418184610fd1565b155b15611c8557826040517fa9fbf51f000000000000000000000000000000000000000000000000000000008152600401611c7c919061229c565b60405180910390fd5b8115611ce757838573ffffffffffffffffffffffffffffffffffffffff168273ffffffffffffffffffffffffffffffffffffffff167f8c5be1e5ebec7d5bd14f71427d1e84f3dd0314c0f7b2291e5b200ac8c7c3b92560405160405180910390a45b505b836004600085815260200190815260200160002060006101000a81548173ffffffffffffffffffffffffffffffffffffffff021916908373ffffffffffffffffffffffffffffffffffffffff16021790555050505050565b611d5b828260405180602001604052806000815250611e7f565b5050565b80600660008481526020019081526020016000209081611d7f9190612e7e565b507ff8e1a15aba9398e019f0b49df1a4fde98ee17ae345cb5f6b5e2c27f5033e8ce782604051611daf91906125ef565b60405180910390a15050565b611dc6838383611e9b565b611e7a57600073ffffffffffffffffffffffffffffffffffffffff168373ffffffffffffffffffffffffffffffffffffffff1603611e3b57806040517f7e273289000000000000000000000000000000000000000000000000000000008152600401611e3291906125ef565b60405180910390fd5b81816040517f177e802f000000000000000000000000000000000000000000000000000000008152600401611e71929190612f50565b60405180910390fd5b505050565b611e898383611f5c565b611e96600084848461191e565b505050565b60008073ffffffffffffffffffffffffffffffffffffffff168373ffffffffffffffffffffffffffffffffffffffff1614158015611f5357508273ffffffffffffffffffffffffffffffffffffffff168473ffffffffffffffffffffffffffffffffffffffff161480611f145750611f138484610fd1565b5b80611f5257508273ffffffffffffffffffffffffffffffffffffffff16611f3a8361126c565b73ffffffffffffffffffffffffffffffffffffffff16145b5b90509392505050565b600073ffffffffffffffffffffffffffffffffffffffff168273ffffffffffffffffffffffffffffffffffffffff1603611fce5760006040517f64a0ae92000000000000000000000000000000000000000000000000000000008152600401611fc5919061229c565b60405180910390fd5b6000611fdc83836000611448565b9050600073ffffffffffffffffffffffffffffffffffffffff168173ffffffffffffffffffffffffffffffffffffffff16146120505760006040517f73c6ac6e000000000000000000000000000000000000000000000000000000008152600401612047919061229c565b60405180910390fd5b505050565b6040518060600160405280600390602082028036833780820191505090505090565b6000604051905090565b600080fd5b600080fd5b60007fffffffff0000000000000000000000000000000000000000000000000000000082169050919050565b6120c08161208b565b81146120cb57600080fd5b50565b6000813590506120dd816120b7565b92915050565b6000602082840312156120f9576120f8612081565b5b6000612107848285016120ce565b91505092915050565b60008115159050919050565b61212581612110565b82525050565b6000602082019050612140600083018461211c565b92915050565b600081519050919050565b600082825260208201905092915050565b60005b83811015612180578082015181840152602081019050612165565b60008484015250505050565b6000601f19601f8301169050919050565b60006121a882612146565b6121b28185612151565b93506121c2818560208601612162565b6121cb8161218c565b840191505092915050565b600060208201905081810360008301526121f0818461219d565b905092915050565b6000819050919050565b61220b816121f8565b811461221657600080fd5b50565b60008135905061222881612202565b92915050565b60006020828403121561224457612243612081565b5b600061225284828501612219565b91505092915050565b600073ffffffffffffffffffffffffffffffffffffffff82169050919050565b60006122868261225b565b9050919050565b6122968161227b565b82525050565b60006020820190506122b1600083018461228d565b92915050565b6122c08161227b565b81146122cb57600080fd5b50565b6000813590506122dd816122b7565b92915050565b600080604083850312156122fa576122f9612081565b5b6000612308858286016122ce565b925050602061231985828601612219565b9150509250929050565b600080fd5b7f4e487b7100000000000000000000000000000000000000000000000000000000600052604160045260246000fd5b6123608261218c565b810181811067ffffffffffffffff8211171561237f5761237e612328565b5b80604052505050565b6000612392612077565b905061239e8282612357565b919050565b600067ffffffffffffffff8211156123be576123bd612328565b5b602082029050602081019050919050565b600080fd5b60006123e76123e2846123a3565b612388565b9050808382526020820190506020840283018581111561240a576124096123cf565b5b835b81811015612433578061241f8882612219565b84526020840193505060208101905061240c565b5050509392505050565b600082601f83011261245257612451612323565b5b81356124628482602086016123d4565b91505092915050565b6000806040838503121561248257612481612081565b5b600061249085828601612219565b925050602083013567ffffffffffffffff8111156124b1576124b0612086565b5b6124bd8582860161243d565b9150509250929050565b6000806000606084860312156124e0576124df612081565b5b60006124ee868287016122ce565b93505060206124ff868287016122ce565b925050604061251086828701612219565b9150509250925092565b600060039050919050565b600081905092915050565b6000819050919050565b612543816121f8565b82525050565b6000612555838361253a565b60208301905092915050565b6000602082019050919050565b6125778161251a565b6125818184612525565b925061258c82612530565b8060005b838110156125bd5781516125a48782612549565b96506125af83612561565b925050600181019050612590565b505050505050565b60006060820190506125da600083018461256e565b92915050565b6125e9816121f8565b82525050565b600060208201905061260460008301846125e0565b92915050565b6000602082840312156126205761261f612081565b5b600061262e848285016122ce565b91505092915050565b61264081612110565b811461264b57600080fd5b50565b60008135905061265d81612637565b92915050565b6000806040838503121561267a57612679612081565b5b6000612688858286016122ce565b92505060206126998582860161264e565b9150509250929050565b7f4e487b7100000000000000000000000000000000000000000000000000000000600052602160045260246000fd5b600381106126e3576126e26126a3565b5b50565b60008190506126f4826126d2565b919050565b6000612704826126e6565b9050919050565b612714816126f9565b82525050565b600060208201905061272f600083018461270b565b92915050565b600080fd5b600067ffffffffffffffff82111561275557612754612328565b5b61275e8261218c565b9050602081019050919050565b82818337600083830152505050565b600061278d6127888461273a565b612388565b9050828152602081018484840111156127a9576127a8612735565b5b6127b484828561276b565b509392505050565b600082601f8301126127d1576127d0612323565b5b81356127e184826020860161277a565b91505092915050565b6000806000806080858703121561280457612803612081565b5b6000612812878288016122ce565b9450506020612823878288016122ce565b935050604061283487828801612219565b925050606085013567ffffffffffffffff81111561285557612854612086565b5b612861878288016127bc565b91505092959194509250565b6000806040838503121561288457612883612081565b5b6000612892858286016122ce565b92505060206128a3858286016122ce565b9150509250929050565b7f4e487b7100000000000000000000000000000000000000000000000000000000600052602260045260246000fd5b600060028204905060018216806128f457607f821691505b602082108103612907576129066128ad565b5b50919050565b6000604082019050612922600083018561228d565b61292f602083018461228d565b9392505050565b600060608201905061294b600083018661228d565b61295860208301856125e0565b612965604083018461228d565b949350505050565b7f4e487b7100000000000000000000000000000000000000000000000000000000600052603260045260246000fd5b600081905092915050565b50565b60006129b760008361299c565b91506129c2826129a7565b600082019050919050565b60006129d8826129aa565b9150819050919050565b7f4e487b7100000000000000000000000000000000000000000000000000000000600052601160045260246000fd5b6000612a1c826121f8565b91507fffffffffffffffffffffffffffffffffffffffffffffffffffffffffffffffff8203612a4e57612a4d6129e2565b5b600182019050919050565b6000819050919050565b612a6c81612a59565b82525050565b600067ffffffffffffffff82169050919050565b612a8f81612a72565b82525050565b600061ffff82169050919050565b612aac81612a95565b82525050565b600063ffffffff82169050919050565b612acb81612ab2565b82525050565b600060a082019050612ae66000830188612a63565b612af36020830187612a86565b612b006040830186612aa3565b612b0d6060830185612ac2565b612b1a6080830184612ac2565b9695505050505050565b600081519050612b3381612202565b92915050565b600060208284031215612b4f57612b4e612081565b5b6000612b5d84828501612b24565b91505092915050565b7f4e487b7100000000000000000000000000000000000000000000000000000000600052601260045260246000fd5b6000612ba0826121f8565b9150612bab836121f8565b925082612bbb57612bba612b66565b5b828206905092915050565b6000604082019050612bdb600083018561270b565b612be8602083018461228d565b9392505050565b600081519050919050565b600082825260208201905092915050565b6000612c1682612bef565b612c208185612bfa565b9350612c30818560208601612162565b612c398161218c565b840191505092915050565b6000608082019050612c59600083018761228d565b612c66602083018661228d565b612c7360408301856125e0565b8181036060830152612c858184612c0b565b905095945050505050565b600081519050612c9f816120b7565b92915050565b600060208284031215612cbb57612cba612081565b5b6000612cc984828501612c90565b91505092915050565b60008190508160005260206000209050919050565b60006020601f8301049050919050565b600082821b905092915050565b600060088302612d347fffffffffffffffffffffffffffffffffffffffffffffffffffffffffffffffff82612cf7565b612d3e8683612cf7565b95508019841693508086168417925050509392505050565b6000819050919050565b6000612d7b612d76612d71846121f8565b612d56565b6121f8565b9050919050565b6000819050919050565b612d9583612d60565b612da9612da182612d82565b848454612d04565b825550505050565b600090565b612dbe612db1565b612dc9818484612d8c565b505050565b5b81811015612ded57612de2600082612db6565b600181019050612dcf565b5050565b601f821115612e3257612e0381612cd2565b612e0c84612ce7565b81016020851015612e1b578190505b612e2f612e2785612ce7565b830182612dce565b50505b505050565b600082821c905092915050565b6000612e5560001984600802612e37565b1980831691505092915050565b6000612e6e8383612e44565b9150826002028217905092915050565b612e8782612146565b67ffffffffffffffff811115612ea057612e9f612328565b5b612eaa82546128dc565b612eb5828285612df1565b600060209050601f831160018114612ee85760008415612ed6578287015190505b612ee08582612e62565b865550612f48565b601f198416612ef686612cd2565b60005b82811015612f1e57848901518255600182019150602085019450602081019050612ef9565b86831015612f3b5784890151612f37601f891682612e44565b8355505b6001600288020188555050505b505050505050565b6000604082019050612f65600083018561228d565b612f7260208301846125e0565b939250505056fea26469706673582212208bce19b4d7e7638037d1a1c2c17403d310f59380bff83e7ab49c615f0475e32f64736f6c63430008140033",
  "linkReferences": {},
  "deployedLinkReferences": {}
}